{
  "_format": "hh-sol-artifact-1",
  "contractName": "DanuToken",
  "sourceName": "contracts/DanuToken.sol",
  "abi": [
    {
      "inputs": [
        {
          "internalType": "uint256",
          "name": "cap",
          "type": "uint256"
        }
      ],
      "stateMutability": "nonpayable",
      "type": "constructor"
    },
    {
      "anonymous": false,
      "inputs": [
        {
          "indexed": true,
          "internalType": "address",
          "name": "owner",
          "type": "address"
        },
        {
          "indexed": true,
          "internalType": "address",
          "name": "spender",
          "type": "address"
        },
        {
          "indexed": false,
          "internalType": "uint256",
          "name": "value",
          "type": "uint256"
        }
      ],
      "name": "Approval",
      "type": "event"
    },
    {
      "anonymous": false,
      "inputs": [
        {
          "indexed": true,
          "internalType": "address",
          "name": "from",
          "type": "address"
        },
        {
          "indexed": true,
          "internalType": "address",
          "name": "to",
          "type": "address"
        },
        {
          "indexed": false,
          "internalType": "uint256",
          "name": "value",
          "type": "uint256"
        }
      ],
      "name": "Transfer",
      "type": "event"
    },
    {
      "inputs": [
        {
          "internalType": "address",
          "name": "owner",
          "type": "address"
        },
        {
          "internalType": "address",
          "name": "spender",
          "type": "address"
        }
      ],
      "name": "allowance",
      "outputs": [
        {
          "internalType": "uint256",
          "name": "",
          "type": "uint256"
        }
      ],
      "stateMutability": "view",
      "type": "function"
    },
    {
      "inputs": [
        {
          "internalType": "address",
          "name": "spender",
          "type": "address"
        },
        {
          "internalType": "uint256",
          "name": "amount",
          "type": "uint256"
        }
      ],
      "name": "approve",
      "outputs": [
        {
          "internalType": "bool",
          "name": "",
          "type": "bool"
        }
      ],
      "stateMutability": "nonpayable",
      "type": "function"
    },
    {
      "inputs": [
        {
          "internalType": "address",
          "name": "account",
          "type": "address"
        }
      ],
      "name": "balanceOf",
      "outputs": [
        {
          "internalType": "uint256",
          "name": "",
          "type": "uint256"
        }
      ],
      "stateMutability": "view",
      "type": "function"
    },
    {
      "inputs": [],
      "name": "blockReward",
      "outputs": [
        {
          "internalType": "uint256",
          "name": "",
          "type": "uint256"
        }
      ],
      "stateMutability": "view",
      "type": "function"
    },
    {
      "inputs": [
        {
          "internalType": "uint256",
          "name": "amount",
          "type": "uint256"
        }
      ],
      "name": "burn",
      "outputs": [],
      "stateMutability": "nonpayable",
      "type": "function"
    },
    {
      "inputs": [
        {
          "internalType": "address",
          "name": "account",
          "type": "address"
        },
        {
          "internalType": "uint256",
          "name": "amount",
          "type": "uint256"
        }
      ],
      "name": "burnFrom",
      "outputs": [],
      "stateMutability": "nonpayable",
      "type": "function"
    },
    {
      "inputs": [],
      "name": "cap",
      "outputs": [
        {
          "internalType": "uint256",
          "name": "",
          "type": "uint256"
        }
      ],
      "stateMutability": "view",
      "type": "function"
    },
    {
      "inputs": [],
      "name": "decimals",
      "outputs": [
        {
          "internalType": "uint8",
          "name": "",
          "type": "uint8"
        }
      ],
      "stateMutability": "view",
      "type": "function"
    },
    {
      "inputs": [
        {
          "internalType": "address",
          "name": "spender",
          "type": "address"
        },
        {
          "internalType": "uint256",
          "name": "subtractedValue",
          "type": "uint256"
        }
      ],
      "name": "decreaseAllowance",
      "outputs": [
        {
          "internalType": "bool",
          "name": "",
          "type": "bool"
        }
      ],
      "stateMutability": "nonpayable",
      "type": "function"
    },
    {
      "inputs": [],
      "name": "destroy",
      "outputs": [],
      "stateMutability": "nonpayable",
      "type": "function"
    },
    {
      "inputs": [
        {
          "internalType": "address",
          "name": "spender",
          "type": "address"
        },
        {
          "internalType": "uint256",
          "name": "addedValue",
          "type": "uint256"
        }
      ],
      "name": "increaseAllowance",
      "outputs": [
        {
          "internalType": "bool",
          "name": "",
          "type": "bool"
        }
      ],
      "stateMutability": "nonpayable",
      "type": "function"
    },
    {
      "inputs": [],
      "name": "name",
      "outputs": [
        {
          "internalType": "string",
          "name": "",
          "type": "string"
        }
      ],
      "stateMutability": "view",
      "type": "function"
    },
    {
      "inputs": [],
      "name": "owner",
      "outputs": [
        {
          "internalType": "address payable",
          "name": "",
          "type": "address"
        }
      ],
      "stateMutability": "view",
      "type": "function"
    },
    {
      "inputs": [
        {
          "internalType": "uint256",
          "name": "reward",
          "type": "uint256"
        }
      ],
      "name": "setBlockReward",
      "outputs": [],
      "stateMutability": "nonpayable",
      "type": "function"
    },
    {
      "inputs": [],
      "name": "symbol",
      "outputs": [
        {
          "internalType": "string",
          "name": "",
          "type": "string"
        }
      ],
      "stateMutability": "view",
      "type": "function"
    },
    {
      "inputs": [],
      "name": "totalSupply",
      "outputs": [
        {
          "internalType": "uint256",
          "name": "",
          "type": "uint256"
        }
      ],
      "stateMutability": "view",
      "type": "function"
    },
    {
      "inputs": [
        {
          "internalType": "address",
          "name": "to",
          "type": "address"
        },
        {
          "internalType": "uint256",
          "name": "amount",
          "type": "uint256"
        }
      ],
      "name": "transfer",
      "outputs": [
        {
          "internalType": "bool",
          "name": "",
          "type": "bool"
        }
      ],
      "stateMutability": "nonpayable",
      "type": "function"
    },
    {
      "inputs": [
        {
          "internalType": "address",
          "name": "from",
          "type": "address"
        },
        {
          "internalType": "address",
          "name": "to",
          "type": "address"
        },
        {
          "internalType": "uint256",
          "name": "amount",
          "type": "uint256"
        }
      ],
      "name": "transferFrom",
      "outputs": [
        {
          "internalType": "bool",
          "name": "",
          "type": "bool"
        }
      ],
      "stateMutability": "nonpayable",
      "type": "function"
    }
  ],
  "bytecode": "0x60a06040523480156200001157600080fd5b5060405162002b8a38038062002b8a8339818101604052810190620000379190620006a0565b620000476200020b60201b60201c565b600a62000055919062000862565b81620000629190620008b3565b6040518060400160405280600981526020017f44616e75546f6b656e00000000000000000000000000000000000000000000008152506040518060400160405280600481526020017f44414e55000000000000000000000000000000000000000000000000000000008152508160039080519060200190620000e6929190620005b0565b508060049080519060200190620000ff929190620005b0565b5050506000811162000148576040517f08c379a00000000000000000000000000000000000000000000000000000000081526004016200013f9062000975565b60405180910390fd5b80608081815250505033600560006101000a81548173ffffffffffffffffffffffffffffffffffffffff021916908373ffffffffffffffffffffffffffffffffffffffff160217905550620001d233620001a76200020b60201b60201c565b600a620001b5919062000862565b63042c1d80620001c69190620008b3565b6200021460201b60201c565b620001e26200020b60201b60201c565b600a620001f0919062000862565b6032620001fe9190620008b3565b6006819055505062000bdd565b60006012905090565b62000224620002a560201b60201c565b816200023a620002af60201b620004561760201c565b62000246919062000997565b11156200028a576040517f08c379a0000000000000000000000000000000000000000000000000000000008152600401620002819062000a44565b60405180910390fd5b620002a18282620002b960201b620008cf1760201c565b5050565b6000608051905090565b6000600254905090565b620002c9620002a560201b60201c565b81620002df620002af60201b620004561760201c565b620002eb919062000997565b11156200032f576040517f08c379a0000000000000000000000000000000000000000000000000000000008152600401620003269062000ab6565b60405180910390fd5b6200034682826200034a60201b620009391760201c565b5050565b600073ffffffffffffffffffffffffffffffffffffffff168273ffffffffffffffffffffffffffffffffffffffff161415620003bd576040517f08c379a0000000000000000000000000000000000000000000000000000000008152600401620003b49062000b28565b60405180910390fd5b620003d160008383620004b860201b60201c565b8060026000828254620003e5919062000997565b92505081905550806000808473ffffffffffffffffffffffffffffffffffffffff1673ffffffffffffffffffffffffffffffffffffffff168152602001908152602001600020600082825401925050819055508173ffffffffffffffffffffffffffffffffffffffff16600073ffffffffffffffffffffffffffffffffffffffff167fddf252ad1be2c89b69c2b068fc378daa952ba7f163c4a11628f55a4df523b3ef8360405162000498919062000b5b565b60405180910390a3620004b4600083836200059060201b60201c565b5050565b600073ffffffffffffffffffffffffffffffffffffffff168373ffffffffffffffffffffffffffffffffffffffff16141580156200052257504173ffffffffffffffffffffffffffffffffffffffff168273ffffffffffffffffffffffffffffffffffffffff1614155b80156200055c5750600073ffffffffffffffffffffffffffffffffffffffff164173ffffffffffffffffffffffffffffffffffffffff1614155b156200057357620005726200059560201b60201c565b5b6200058b838383620005ab60201b62000a901760201c565b505050565b505050565b620005a9416006546200021460201b60201c565b565b505050565b828054620005be9062000ba7565b90600052602060002090601f016020900481019282620005e257600085556200062e565b82601f10620005fd57805160ff19168380011785556200062e565b828001600101855582156200062e579182015b828111156200062d57825182559160200191906001019062000610565b5b5090506200063d919062000641565b5090565b5b808211156200065c57600081600090555060010162000642565b5090565b600080fd5b6000819050919050565b6200067a8162000665565b81146200068657600080fd5b50565b6000815190506200069a816200066f565b92915050565b600060208284031215620006b957620006b862000660565b5b6000620006c98482850162000689565b91505092915050565b7f4e487b7100000000000000000000000000000000000000000000000000000000600052601160045260246000fd5b60008160011c9050919050565b6000808291508390505b60018511156200076057808604811115620007385762000737620006d2565b5b6001851615620007485780820291505b8081029050620007588562000701565b945062000718565b94509492505050565b6000826200077b57600190506200084e565b816200078b57600090506200084e565b8160018114620007a45760028114620007af57620007e5565b60019150506200084e565b60ff841115620007c457620007c3620006d2565b5b8360020a915084821115620007de57620007dd620006d2565b5b506200084e565b5060208310610133831016604e8410600b84101617156200081f5782820a905083811115620008195762000818620006d2565b5b6200084e565b6200082e84848460016200070e565b92509050818404811115620008485762000847620006d2565b5b81810290505b9392505050565b600060ff82169050919050565b60006200086f8262000665565b91506200087c8362000855565b9250620008ab7fffffffffffffffffffffffffffffffffffffffffffffffffffffffffffffffff848462000769565b905092915050565b6000620008c08262000665565b9150620008cd8362000665565b9250817fffffffffffffffffffffffffffffffffffffffffffffffffffffffffffffffff0483118215151615620009095762000908620006d2565b5b828202905092915050565b600082825260208201905092915050565b7f45524332304361707065643a2063617020697320300000000000000000000000600082015250565b60006200095d60158362000914565b91506200096a8262000925565b602082019050919050565b6000602082019050818103600083015262000990816200094e565b9050919050565b6000620009a48262000665565b9150620009b18362000665565b9250827fffffffffffffffffffffffffffffffffffffffffffffffffffffffffffffffff03821115620009e957620009e8620006d2565b5b828201905092915050565b7f44616e75546f6b656e3a20636170206578636565646564000000000000000000600082015250565b600062000a2c60178362000914565b915062000a3982620009f4565b602082019050919050565b6000602082019050818103600083015262000a5f8162000a1d565b9050919050565b7f45524332304361707065643a2063617020657863656564656400000000000000600082015250565b600062000a9e60198362000914565b915062000aab8262000a66565b602082019050919050565b6000602082019050818103600083015262000ad18162000a8f565b9050919050565b7f45524332303a206d696e7420746f20746865207a65726f206164647265737300600082015250565b600062000b10601f8362000914565b915062000b1d8262000ad8565b602082019050919050565b6000602082019050818103600083015262000b438162000b01565b9050919050565b62000b558162000665565b82525050565b600060208201905062000b72600083018462000b4a565b92915050565b7f4e487b7100000000000000000000000000000000000000000000000000000000600052602260045260246000fd5b6000600282049050600182168062000bc057607f821691505b6020821081141562000bd75762000bd662000b78565b5b50919050565b608051611f9162000bf960003960006105540152611f916000f3fe608060405234801561001057600080fd5b50600436106101165760003560e01c806342966c68116100a25780638da5cb5b116100715780638da5cb5b146102cf57806395d89b41146102ed578063a457c2d71461030b578063a9059cbb1461033b578063dd62ed3e1461036b57610116565b806342966c681461025d57806370a082311461027957806379cc6790146102a957806383197ef0146102c557610116565b80631a18e707116100e95780631a18e707146101a557806323b872dd146101c1578063313ce567146101f1578063355274ea1461020f578063395093511461022d57610116565b806306fdde031461011b578063095ea7b3146101395780630ac168a11461016957806318160ddd14610187575b600080fd5b61012361039b565b6040516101309190611310565b60405180910390f35b610153600480360381019061014e91906113cb565b61042d565b6040516101609190611426565b60405180910390f35b610171610450565b60405161017e9190611450565b60405180910390f35b61018f610456565b60405161019c9190611450565b60405180910390f35b6101bf60048036038101906101ba919061146b565b610460565b005b6101db60048036038101906101d69190611498565b610518565b6040516101e89190611426565b60405180910390f35b6101f9610547565b6040516102069190611507565b60405180910390f35b610217610550565b6040516102249190611450565b60405180910390f35b610247600480360381019061024291906113cb565b610578565b6040516102549190611426565b60405180910390f35b6102776004803603810190610272919061146b565b6105af565b005b610293600480360381019061028e9190611522565b6105c3565b6040516102a09190611450565b60405180910390f35b6102c360048036038101906102be91906113cb565b61060b565b005b6102cd61062b565b005b6102d76106f6565b6040516102e49190611570565b60405180910390f35b6102f561071c565b6040516103029190611310565b60405180910390f35b610325600480360381019061032091906113cb565b6107ae565b6040516103329190611426565b60405180910390f35b610355600480360381019061035091906113cb565b610825565b6040516103629190611426565b60405180910390f35b6103856004803603810190610380919061158b565b610848565b6040516103929190611450565b60405180910390f35b6060600380546103aa906115fa565b80601f01602080910402602001604051908101604052809291908181526020018280546103d6906115fa565b80156104235780601f106103f857610100808354040283529160200191610423565b820191906000526020600020905b81548152906001019060200180831161040657829003601f168201915b5050505050905090565b600080610438610a95565b9050610445818585610a9d565b600191505092915050565b60065481565b6000600254905090565b600560009054906101000a900473ffffffffffffffffffffffffffffffffffffffff1673ffffffffffffffffffffffffffffffffffffffff163373ffffffffffffffffffffffffffffffffffffffff16146104f0576040517f08c379a00000000000000000000000000000000000000000000000000000000081526004016104e79061169e565b60405180910390fd5b6104f8610547565b600a6105049190611820565b8161050f919061186b565b60068190555050565b600080610523610a95565b9050610530858285610c68565b61053b858585610cf4565b60019150509392505050565b60006012905090565b60007f0000000000000000000000000000000000000000000000000000000000000000905090565b600080610583610a95565b90506105a48185856105958589610848565b61059f91906118c5565b610a9d565b600191505092915050565b6105c06105ba610a95565b82610f6c565b50565b60008060008373ffffffffffffffffffffffffffffffffffffffff1673ffffffffffffffffffffffffffffffffffffffff168152602001908152602001600020549050919050565b61061d82610617610a95565b83610c68565b6106278282610f6c565b5050565b600560009054906101000a900473ffffffffffffffffffffffffffffffffffffffff1673ffffffffffffffffffffffffffffffffffffffff163373ffffffffffffffffffffffffffffffffffffffff16146106bb576040517f08c379a00000000000000000000000000000000000000000000000000000000081526004016106b29061169e565b60405180910390fd5b600560009054906101000a900473ffffffffffffffffffffffffffffffffffffffff1673ffffffffffffffffffffffffffffffffffffffff16ff5b600560009054906101000a900473ffffffffffffffffffffffffffffffffffffffff1681565b60606004805461072b906115fa565b80601f0160208091040260200160405190810160405280929190818152602001828054610757906115fa565b80156107a45780601f10610779576101008083540402835291602001916107a4565b820191906000526020600020905b81548152906001019060200180831161078757829003601f168201915b5050505050905090565b6000806107b9610a95565b905060006107c78286610848565b90508381101561080c576040517f08c379a00000000000000000000000000000000000000000000000000000000081526004016108039061198d565b60405180910390fd5b6108198286868403610a9d565b60019250505092915050565b600080610830610a95565b905061083d818585610cf4565b600191505092915050565b6000600160008473ffffffffffffffffffffffffffffffffffffffff1673ffffffffffffffffffffffffffffffffffffffff16815260200190815260200160002060008373ffffffffffffffffffffffffffffffffffffffff1673ffffffffffffffffffffffffffffffffffffffff16815260200190815260200160002054905092915050565b6108d7610550565b816108e0610456565b6108ea91906118c5565b111561092b576040517f08c379a0000000000000000000000000000000000000000000000000000000008152600401610922906119f9565b60405180910390fd5b6109358282610939565b5050565b600073ffffffffffffffffffffffffffffffffffffffff168273ffffffffffffffffffffffffffffffffffffffff1614156109a9576040517f08c379a00000000000000000000000000000000000000000000000000000000081526004016109a090611a65565b60405180910390fd5b6109b56000838361113a565b80600260008282546109c791906118c5565b92505081905550806000808473ffffffffffffffffffffffffffffffffffffffff1673ffffffffffffffffffffffffffffffffffffffff168152602001908152602001600020600082825401925050819055508173ffffffffffffffffffffffffffffffffffffffff16600073ffffffffffffffffffffffffffffffffffffffff167fddf252ad1be2c89b69c2b068fc378daa952ba7f163c4a11628f55a4df523b3ef83604051610a789190611450565b60405180910390a3610a8c600083836111fa565b5050565b505050565b600033905090565b600073ffffffffffffffffffffffffffffffffffffffff168373ffffffffffffffffffffffffffffffffffffffff161415610b0d576040517f08c379a0000000000000000000000000000000000000000000000000000000008152600401610b0490611af7565b60405180910390fd5b600073ffffffffffffffffffffffffffffffffffffffff168273ffffffffffffffffffffffffffffffffffffffff161415610b7d576040517f08c379a0000000000000000000000000000000000000000000000000000000008152600401610b7490611b89565b60405180910390fd5b80600160008573ffffffffffffffffffffffffffffffffffffffff1673ffffffffffffffffffffffffffffffffffffffff16815260200190815260200160002060008473ffffffffffffffffffffffffffffffffffffffff1673ffffffffffffffffffffffffffffffffffffffff168152602001908152602001600020819055508173ffffffffffffffffffffffffffffffffffffffff168373ffffffffffffffffffffffffffffffffffffffff167f8c5be1e5ebec7d5bd14f71427d1e84f3dd0314c0f7b2291e5b200ac8c7c3b92583604051610c5b9190611450565b60405180910390a3505050565b6000610c748484610848565b90507fffffffffffffffffffffffffffffffffffffffffffffffffffffffffffffffff8114610cee5781811015610ce0576040517f08c379a0000000000000000000000000000000000000000000000000000000008152600401610cd790611bf5565b60405180910390fd5b610ced8484848403610a9d565b5b50505050565b600073ffffffffffffffffffffffffffffffffffffffff168373ffffffffffffffffffffffffffffffffffffffff161415610d64576040517f08c379a0000000000000000000000000000000000000000000000000000000008152600401610d5b90611c87565b60405180910390fd5b600073ffffffffffffffffffffffffffffffffffffffff168273ffffffffffffffffffffffffffffffffffffffff161415610dd4576040517f08c379a0000000000000000000000000000000000000000000000000000000008152600401610dcb90611d19565b60405180910390fd5b610ddf83838361113a565b60008060008573ffffffffffffffffffffffffffffffffffffffff1673ffffffffffffffffffffffffffffffffffffffff16815260200190815260200160002054905081811015610e65576040517f08c379a0000000000000000000000000000000000000000000000000000000008152600401610e5c90611dab565b60405180910390fd5b8181036000808673ffffffffffffffffffffffffffffffffffffffff1673ffffffffffffffffffffffffffffffffffffffff16815260200190815260200160002081905550816000808573ffffffffffffffffffffffffffffffffffffffff1673ffffffffffffffffffffffffffffffffffffffff168152602001908152602001600020600082825401925050819055508273ffffffffffffffffffffffffffffffffffffffff168473ffffffffffffffffffffffffffffffffffffffff167fddf252ad1be2c89b69c2b068fc378daa952ba7f163c4a11628f55a4df523b3ef84604051610f539190611450565b60405180910390a3610f668484846111fa565b50505050565b600073ffffffffffffffffffffffffffffffffffffffff168273ffffffffffffffffffffffffffffffffffffffff161415610fdc576040517f08c379a0000000000000000000000000000000000000000000000000000000008152600401610fd390611e3d565b60405180910390fd5b610fe88260008361113a565b60008060008473ffffffffffffffffffffffffffffffffffffffff1673ffffffffffffffffffffffffffffffffffffffff1681526020019081526020016000205490508181101561106e576040517f08c379a000000000000000000000000000000000000000000000000000000000815260040161106590611ecf565b60405180910390fd5b8181036000808573ffffffffffffffffffffffffffffffffffffffff1673ffffffffffffffffffffffffffffffffffffffff1681526020019081526020016000208190555081600260008282540392505081905550600073ffffffffffffffffffffffffffffffffffffffff168373ffffffffffffffffffffffffffffffffffffffff167fddf252ad1be2c89b69c2b068fc378daa952ba7f163c4a11628f55a4df523b3ef846040516111219190611450565b60405180910390a3611135836000846111fa565b505050565b600073ffffffffffffffffffffffffffffffffffffffff168373ffffffffffffffffffffffffffffffffffffffff16141580156111a357504173ffffffffffffffffffffffffffffffffffffffff168273ffffffffffffffffffffffffffffffffffffffff1614155b80156111dc5750600073ffffffffffffffffffffffffffffffffffffffff164173ffffffffffffffffffffffffffffffffffffffff1614155b156111ea576111e96111ff565b5b6111f5838383610a90565b505050565b505050565b61120b4160065461120d565b565b611215610550565b8161121e610456565b61122891906118c5565b1115611269576040517f08c379a000000000000000000000000000000000000000000000000000000000815260040161126090611f3b565b60405180910390fd5b61127382826108cf565b5050565b600081519050919050565b600082825260208201905092915050565b60005b838110156112b1578082015181840152602081019050611296565b838111156112c0576000848401525b50505050565b6000601f19601f8301169050919050565b60006112e282611277565b6112ec8185611282565b93506112fc818560208601611293565b611305816112c6565b840191505092915050565b6000602082019050818103600083015261132a81846112d7565b905092915050565b600080fd5b600073ffffffffffffffffffffffffffffffffffffffff82169050919050565b600061136282611337565b9050919050565b61137281611357565b811461137d57600080fd5b50565b60008135905061138f81611369565b92915050565b6000819050919050565b6113a881611395565b81146113b357600080fd5b50565b6000813590506113c58161139f565b92915050565b600080604083850312156113e2576113e1611332565b5b60006113f085828601611380565b9250506020611401858286016113b6565b9150509250929050565b60008115159050919050565b6114208161140b565b82525050565b600060208201905061143b6000830184611417565b92915050565b61144a81611395565b82525050565b60006020820190506114656000830184611441565b92915050565b60006020828403121561148157611480611332565b5b600061148f848285016113b6565b91505092915050565b6000806000606084860312156114b1576114b0611332565b5b60006114bf86828701611380565b93505060206114d086828701611380565b92505060406114e1868287016113b6565b9150509250925092565b600060ff82169050919050565b611501816114eb565b82525050565b600060208201905061151c60008301846114f8565b92915050565b60006020828403121561153857611537611332565b5b600061154684828501611380565b91505092915050565b600061155a82611337565b9050919050565b61156a8161154f565b82525050565b60006020820190506115856000830184611561565b92915050565b600080604083850312156115a2576115a1611332565b5b60006115b085828601611380565b92505060206115c185828601611380565b9150509250929050565b7f4e487b7100000000000000000000000000000000000000000000000000000000600052602260045260246000fd5b6000600282049050600182168061161257607f821691505b60208210811415611626576116256115cb565b5b50919050565b7f6f6e6c7920746865206f776e65722063616e2063616c6c20746869732066756e60008201527f6374696f6e000000000000000000000000000000000000000000000000000000602082015250565b6000611688602583611282565b91506116938261162c565b604082019050919050565b600060208201905081810360008301526116b78161167b565b9050919050565b7f4e487b7100000000000000000000000000000000000000000000000000000000600052601160045260246000fd5b60008160011c9050919050565b6000808291508390505b6001851115611744578086048111156117205761171f6116be565b5b600185161561172f5780820291505b808102905061173d856116ed565b9450611704565b94509492505050565b60008261175d5760019050611819565b8161176b5760009050611819565b8160018114611781576002811461178b576117ba565b6001915050611819565b60ff84111561179d5761179c6116be565b5b8360020a9150848211156117b4576117b36116be565b5b50611819565b5060208310610133831016604e8410600b84101617156117ef5782820a9050838111156117ea576117e96116be565b5b611819565b6117fc84848460016116fa565b92509050818404811115611813576118126116be565b5b81810290505b9392505050565b600061182b82611395565b9150611836836114eb565b92506118637fffffffffffffffffffffffffffffffffffffffffffffffffffffffffffffffff848461174d565b905092915050565b600061187682611395565b915061188183611395565b9250817fffffffffffffffffffffffffffffffffffffffffffffffffffffffffffffffff04831182151516156118ba576118b96116be565b5b828202905092915050565b60006118d082611395565b91506118db83611395565b9250827fffffffffffffffffffffffffffffffffffffffffffffffffffffffffffffffff038211156119105761190f6116be565b5b828201905092915050565b7f45524332303a2064656372656173656420616c6c6f77616e63652062656c6f7760008201527f207a65726f000000000000000000000000000000000000000000000000000000602082015250565b6000611977602583611282565b91506119828261191b565b604082019050919050565b600060208201905081810360008301526119a68161196a565b9050919050565b7f45524332304361707065643a2063617020657863656564656400000000000000600082015250565b60006119e3601983611282565b91506119ee826119ad565b602082019050919050565b60006020820190508181036000830152611a12816119d6565b9050919050565b7f45524332303a206d696e7420746f20746865207a65726f206164647265737300600082015250565b6000611a4f601f83611282565b9150611a5a82611a19565b602082019050919050565b60006020820190508181036000830152611a7e81611a42565b9050919050565b7f45524332303a20617070726f76652066726f6d20746865207a65726f2061646460008201527f7265737300000000000000000000000000000000000000000000000000000000602082015250565b6000611ae1602483611282565b9150611aec82611a85565b604082019050919050565b60006020820190508181036000830152611b1081611ad4565b9050919050565b7f45524332303a20617070726f766520746f20746865207a65726f20616464726560008201527f7373000000000000000000000000000000000000000000000000000000000000602082015250565b6000611b73602283611282565b9150611b7e82611b17565b604082019050919050565b60006020820190508181036000830152611ba281611b66565b9050919050565b7f45524332303a20696e73756666696369656e7420616c6c6f77616e6365000000600082015250565b6000611bdf601d83611282565b9150611bea82611ba9565b602082019050919050565b60006020820190508181036000830152611c0e81611bd2565b9050919050565b7f45524332303a207472616e736665722066726f6d20746865207a65726f20616460008201527f6472657373000000000000000000000000000000000000000000000000000000602082015250565b6000611c71602583611282565b9150611c7c82611c15565b604082019050919050565b60006020820190508181036000830152611ca081611c64565b9050919050565b7f45524332303a207472616e7366657220746f20746865207a65726f206164647260008201527f6573730000000000000000000000000000000000000000000000000000000000602082015250565b6000611d03602383611282565b9150611d0e82611ca7565b604082019050919050565b60006020820190508181036000830152611d3281611cf6565b9050919050565b7f45524332303a207472616e7366657220616d6f756e742065786365656473206260008201527f616c616e63650000000000000000000000000000000000000000000000000000602082015250565b6000611d95602683611282565b9150611da082611d39565b604082019050919050565b60006020820190508181036000830152611dc481611d88565b9050919050565b7f45524332303a206275726e2066726f6d20746865207a65726f2061646472657360008201527f7300000000000000000000000000000000000000000000000000000000000000602082015250565b6000611e27602183611282565b9150611e3282611dcb565b604082019050919050565b60006020820190508181036000830152611e5681611e1a565b9050919050565b7f45524332303a206275726e20616d6f756e7420657863656564732062616c616e60008201527f6365000000000000000000000000000000000000000000000000000000000000602082015250565b6000611eb9602283611282565b9150611ec482611e5d565b604082019050919050565b60006020820190508181036000830152611ee881611eac565b9050919050565b7f44616e75546f6b656e3a20636170206578636565646564000000000000000000600082015250565b6000611f25601783611282565b9150611f3082611eef565b602082019050919050565b60006020820190508181036000830152611f5481611f18565b905091905056fea26469706673582212206ac7a25fa0f1bfd7e6b2a2c26f3a2181a13f1cd79f12dcc22d8562769b5b742864736f6c63430008090033",
  "linkReferences": {},
  "deployedLinkReferences": {}
}